:100000000C94A0010C94D1010C94D1010C94D10159
:100010000C94D1010C94D1010C94D1010C94D10118
:100020000C94D1010C94A0080C9478080C944A0804
:100030000C94D1010C94D1010C94D1010C94D101F8
:100040000C94D1010C94D1010C94D1010C94D101E8
:100050000C94D1010C94D1010C94D1010C94FF01AA
:100060000C94D1010C94CA030C9496040C94D10105
:100070000C94D1010C94D1010C94D1010C94D101B8
:100080000C94D1010C94D1010C94D1010C94D101A8
:100090000C94FD030C94D5040C94D1010C94D10163
:1000A0000C94D1010C94D1010C94D1010C94D10188
:1000B0000C94D1010C94D1010C94D1010C94D10178
:1000C0000C94D1010C94D1010C94D1010C94300406
:1000D0000C9414050C94D1010C9463040C945305F6
:1000E0000C94D1014F0A520A450A490A890A560A54
:1000F0005A0A600A640A680A6E0A720A760A890A4B
:100100007C0A800A840A0C94560A0C94E8060C9423
:10011000600A0C94490A0C9417030C94840A0C94FA
:1001200027030C9409070C9423070C946E030C947A
:100130004F0A0C9443030C94520A0C94AB020C9497
:10014000890A0C94FB010C945A0A0C94E4070C9451
:10015000720A0C947C0A0C9416060C94800A0C9477
:100160006E0A0C9463030C94450A0C94640A0C9474
:10017000680A0C94760A0C94F4010C943B0700C2B4
:1001800001000100110011000C0000E100000A0054
:1001900025002500210000960000190039003900D3
:1001A0003600127A00001F004600460044008070AE
:1001B000000022004D004D004A00004B00003600B8
:1001C000750075007200403800004A009C009C00D9
:1001D0009900802500007200EC00EC00E900C012DC
:1001E0000000E900DA01DA01D70160090000D70157
:1001F000B603B603B303B0040000B3036E076E0783
:100200006B07580200006E07DC0EDC0ED80E2C01C6
:100210000000DC0EC11DC11DBE1D0000090A020840
:100220000B0C0D0706030401000000000000000095
:1002300000000000000000000000000000000000BE
:1002400000000000000011100F000000000000007E
:10025000000000000000000000000000000000009E
:1002600001021020200808102040102040800201C8
:1002700002010804020101020408102040808040AD
:1002800020100804020180040201804020100804AC
:10029000020108040201010204081020408001024A
:1002A0000408102040800505050507050808080812
:1002B000020202020A0A08080404040401010101FE
:1002C00001010101030303030303030304070707F9
:1002D0000C0C0C0C0C0C0C0C02020202060606069E
:1002E000060606060B0B0B0B0B0B0B0B000020007E
:1002F0002300260029002C002F00320000010000FE
:1003000003010601090100002200250028002B003E
:100310002E003100340002010000050108010B012C
:1003200000002100240027002A002D0030003300A7
:1003300001010000040107010A01F4011606FB0196
:1003400011241FBECFEFD1E2DEBFCDBF00E00CBF56
:1003500012E0A0E0B2E0E8EBF6E100E00BBF02C083
:1003600007900D92A832B107D9F725E0A8E2B2E0D4
:1003700001C01D92A933B207E1F711E0CFE9D1E046
:1003800000E006C021970109802FFE010E942E0B7C
:10039000CD39D10780E00807A9F70E94D3010C945A
:1003A000F50A0C9400000E94490240E855E260E022
:1003B00070E083EB92E00E94920540E052EC61E035
:1003C00070E088E292E00E94410965E072E088E214
:1003D00092E00E94E80260E072E083EB92E00E940B
:1003E000050380E090E0089520E043E162E188E2C7
:1003F00092E00C94160988E292E00C94310A1F9264
:100400000F920FB60F9211242F933F938F939F93C8
:10041000AF93BF938091450290914602A09147020D
:10042000B09148023091440223E0230F2D3720F48D
:100430000196A11DB11D05C026E8230F0296A11D3E
:10044000B11D209344028093450290934602A093ED
:100450004702B09348028091490290914A02A091CC
:100460004B02B0914C020196A11DB11D809349022F
:1004700090934A02A0934B02B0934C02BF91AF916C
:100480009F918F913F912F910F900FBE0F901F90D2
:100490001895789484B5826084BD84B5816084BDEC
:1004A00085B5826085BD85B5816085BDEEE6F0E0ED
:1004B000808181608083E1E8F0E010828081826049
:1004C0008083808181608083E0E8F0E080818160CA
:1004D0008083E1EBF0E0808184608083E0EBF0E0FA
:1004E000808181608083E1E9F0E0808182608083A7
:1004F000808181608083E0E9F0E080818160808399
:10050000E1EAF0E080818260808380818160808385
:10051000E0EAF0E0808181608083E1E2F1E08081C7
:1005200082608083808181608083E0E2F1E080816D
:1005300081608083EAE7F0E080818460808380814D
:1005400082608083808181608083808180688083F5
:100550001092C1000895CF92DF92EF92FF920F9315
:100560001F93CF93DF936C01EB017B01E40EF51E2B
:1005700000E010E0CE15DF0561F06991D601ED9144
:10058000FC910190F081E02DC6011995080F191F0B
:10059000F1CFC801DF91CF911F910F91FF90EF90A4
:1005A000DF90CF9008956115710579F0FB010190FE
:1005B0000020E9F73197AF01461B570BDC01ED91A5
:1005C000FC910280F381E02D199480E090E0089581
:1005D0000C94D302DC01ED91FC910190F081E02DAF
:1005E00019940F931F93CF93DF93EC016DE00E945A
:1005F000EA028C016AE0CE010E94EA02800F911F9C
:10060000DF91CF911F910F9108950F931F93CF9377
:10061000DF93EC010E94D3028C01CE010E94F10213
:10062000800F911FDF91CF911F910F910895FC01D1
:1006300024853585F901E05CFF4F808191813296F8
:1006400020813181821B930B8F7399270895DC01E0
:100650001C96ED91FC911D97DF01A05CBF4F2D9181
:100660003C91119712968D919C91119728173907FB
:1006700039F08D919C91E80FF91F808190E00895E9
:100680008FEF9FEF0895FC01A485B585FD01E05C27
:10069000FF4F20813181329680819181281739075F
:1006A00079F080819181A80FB91F8C9120813181CF
:1006B0002F5F3F4F2F7333273183208390E00895BE
:1006C0008FEF9FEF0895FC0181A1882329F0A48971
:1006D000B5898C9186FFFBCF11A208950F931F93CC
:1006E000CF93DF93FC01A685B7858D01005C1F4F7A
:1006F000E8018881998101968F739927AD014E5B3E
:100700005F4FEA012881398128173907D1F3E801C1
:1007100028813981A20FB31F6C93A685B785A05C91
:10072000BF4F11969C938E93A689B7892C9181E037
:1007300090E0078C02C0880F991F0A94E2F7822B81
:100740008C9381E081A30488F589E02D8081806409
:10075000808381E090E0DF91CF911F910F91089508
:10076000FB01E05CFF4F20813181DB01AE5BBF4FBD
:100770004D915C912F5F3F4F2F73332742175307E3
:1007800041F040815181DB01A40FB51F8C9331836F
:10079000208308951F920F920FB60F9211240BB66B
:1007A0000F922F933F934F935F936F937F938F930A
:1007B0009F93AF93BF93EF93FF938091C00082FD0F
:1007C00007C08091C60061EB74E00E94B00302C0D4
:1007D0008091C600FF91EF91BF91AF919F918F9152
:1007E0007F916F915F914F913F912F910F900BBE31
:1007F0000F900FBE0F901F9018951F920F920FB67B
:100800000F9211240BB60F922F933F934F935F9348
:100810006F937F938F939F93AF93BF93EF93FF93C8
:100820008091C80082FD07C08091CE0069E274E02B
:100830000E94B00302C08091CE00FF91EF91BF9162
:10084000AF919F918F917F916F915F914F913F9168
:100850002F910F900BBE0F900FBE0F901F90189509
:100860001F920F920FB60F9211240BB60F922F9377
:100870003F934F935F936F937F938F939F93AF9328
:10088000BF93EF93FF938091D00082FD07C08091CA
:10089000D60061EA73E00E94B00302C08091D600E6
:1008A000FF91EF91BF91AF919F918F917F916F9148
:1008B0005F914F913F912F910F900BBE0F900FBE04
:1008C0000F901F9018951F920F920FB60F92112440
:1008D0000BB60F922F933F934F935F936F937F933A
:1008E0008F939F93AF93BF93EF93FF9380913001CA
:1008F00082FD07C08091360169E173E00E94B00378
:1009000002C080913601FF91EF91BF91AF919F910D
:100910008F917F916F915F914F913F912F910F90A8
:100920000BBE0F900FBE0F901F9018951F920F9245
:100930000FB60F9211240BB60F922F933F938F9304
:100940009F93EF93FF932091AD043091AE0480917B
:10095000AF049091B0042817390731F48091C10099
:100960008F7D8093C10014C0E091AF04F091B0047A
:10097000E359FB4F20818091AF049091B004019620
:100980008F7399279093B0048093AF042093C6008F
:10099000FF91EF919F918F913F912F910F900BBEFF
:1009A0000F900FBE0F901F9018951F920F920FB6C9
:1009B0000F9211240BB60F922F933F938F939F9317
:1009C000EF93FF9320912504309126048091270412
:1009D000909128042817390731F48091C9008F7D40
:1009E0008093C90014C0E0912704F0912804EB51D2
:1009F000FC4F2081809127049091280401968F73E9
:100A0000992790932804809327042093CE00FF9188
:100A1000EF919F918F913F912F910F900BBE0F906F
:100A20000FBE0F901F9018951F920F920FB60F9246
:100A300011240BB60F922F933F938F939F93EF93B5
:100A4000FF9320919D0330919E0380919F0390918D
:100A5000A0032817390731F48091D1008F7D80934E
:100A6000D10014C0E0919F03F091A003E35AFC4F22
:100A7000208180919F039091A00301968F73992705
:100A80009093A00380939F032093D600FF91EF9152
:100A90009F918F913F912F910F900BBE0F900FBEA2
:100AA0000F901F9018951F920F920FB60F9211245E
:100AB0000BB60F922F933F938F939F93EF93FF93D8
:100AC000209115033091160380911703909118031C
:100AD0002817390731F4809131018F7D80933101DE
:100AE00014C0E0911703F0911803EB52FD4F2081E1
:100AF000809117039091180301968F739927909313
:100B000018038093170320933601FF91EF919F9173
:100B10008F913F912F910F900BBE0F900FBE0F90B2
:100B20001F901895CF92DF92EF92FF92CF93DF93B1
:100B3000EC016A017B014115514E6105710509F116
:100B4000EC89FD8981E090E008A002C0880F991F20
:100B50000A94E2F7808360E079E08DE390E0A701FA
:100B600096010E940C0BDA01C9010197A109B10994
:100B7000B695A795979587959C01211580E1380733
:100B8000A8F0EC89FD89108260E874E88EE190E0BD
:100B9000A70196010E940C0BDA01C9010197A10976
:100BA000B109B695A795979587959C01E889F9892C
:100BB0003083EA89FB89208319A2EE89FF8940816D
:100BC00081E090E09C010C8C02C0220F331F0A943C
:100BD000E2F7242B2083EE89FF8940819C010D8C54
:100BE00002C0220F331F0A94E2F7242B2083EE89E0
:100BF000FF8940819C010E8C02C0220F331F0A9492
:100C0000E2F7242B2083EE89FF8920810F8C02C01C
:100C1000880F991F0A94E2F7809582238083DF91E1
:100C2000CF91FF90EF90DF90CF900895CF92DF9219
:100C3000EF92FF92E3EBF2E01382128288EEC82E6D
:100C400083E0D82EE12CF12CC482D582E682F78293
:100C50006CE072E07183608381EB94E09587848718
:100C60008DE694E09787868785EC90E0918B808B6A
:100C700084EC90E0938B828B80EC90E0958B848B5E
:100C800081EC90E0978B868B82EC90E0918F808F47
:100C900086EC90E0938F828F44E0448F33E0358F71
:100CA00027E0268F95E0978F81E080A3E1E9F2E0CD
:100CB00013821282C482D582E682F78271836083B6
:100CC000A9E2B4E0B587A487A5EEB3E0B787A6870D
:100CD000ADECB0E0B18BA08BACECB0E0B38BA28BF1
:100CE000A8ECB0E0B58BA48BA9ECB0E0B78BA68BD9
:100CF000AAECB0E0B18FA08FAEECB0E0B38FA28FC2
:100D0000448F358F268F978F80A3EFE6F2E0138212
:100D10001282C482D582E682F78271836083A1EA5F
:100D2000B3E0B587A487ADE5B3E0B787A687A5EDA7
:100D3000B0E0B18BA08BA4EDB0E0B38BA28BA0EDA3
:100D4000B0E0B58BA48BA1EDB0E0B78BA68BA2ED84
:100D5000B0E0B18FA08FA6EDB0E0B38FA28F448F2B
:100D6000358F268F978F80A3EDE4F2E013821282F5
:100D7000C482D582E682F7827183608369E173E081
:100D80007587648765ED72E07787668765E371E054
:100D9000718B608B64E371E0738B628B60E371E055
:100DA000758B648B61E371E0778B668B62E371E036
:100DB000718F608F66E371E0738F628F448F358F20
:100DC000268F978F80A3FF90EF90DF90CF900895AC
:100DD000209137053091380528173907B9F49091DB
:100DE000F5048091F604981789F0E091F504F0E09D
:100DF000E950FB4F80812091F50430E02F5F3F4F99
:100E00002F7333272093F50490E008958FEF9FEF21
:100E1000089520913705309138052817390781F456
:100E20009091F5048091F604981751F0E091F50443
:100E3000F0E0E950FB4F8081082E000C990B0895DB
:100E40008FEF9FEF089520913705309138052817CF
:100E5000390771F48091F6042091F50490E0805CEC
:100E60009F4F821B910960E470E00E94F80A089588
:100E700080E090E0089520913705309138052817DB
:100E8000390739F48FB7F8941092F6041092F504EC
:100E90008FBF0895DC015196ED91FC91529790819E
:100EA00050968C91809589238083089520E0019746
:100EB0002FEF8F3F9207D9F7089520913705309192
:100EC00038052817390789F0FC01238D2E7F238FE1
:100ED0002FB7F8941092F6041092F5049093380509
:100EE000809337052FBF81E0089580E00895EF9249
:100EF000FF920F931F93CF93DF93EC018B8DEE85C1
:100F0000FF859D8581FF04C08081982329F446C018
:100F10008081982309F042C08B899C890E945607E2
:100F200088E0E82EF12C10E001E08D899E890E9476
:100F30005607EE85FF8590818D85892311F0102B52
:100F400003C0802F80951823000F81E0E81AF10874
:100F500061F78F89988D0E9456078B8D81FD1095C2
:100F60008091F6042091F50490E001968F73992703
:100F700030E08217930779F0E091F604F0E0E95051
:100F8000FB4F10838091F60490E001968F739927B0
:100F90008093F60403C08B8D81608B8FDF91CF919E
:100FA0001F910F91FF90EF900895611102C00C9472
:100FB0004A07DC015196ED91FC91529720815096A1
:100FC0008C91822B80830895DF92EF92FF920F9392
:100FD0001F93CF93DF93EC01298D3A8D21153105B5
:100FE00029F481E090E09B838A834BC0162FDFB603
:100FF000F8946B8D669561700E94D507898D9A8DE6
:1010000005960E9456078B8D98E0E92EF12C01E0A1
:1010100081FF18C0812F802321F0CE010E944A0752
:1010200004C061E0CE010E94D507898D9A8D0E948F
:101030005607000F81E0E81AF10861F7CE010E941F
:101040004A0718C0812F802329F061E0CE010E9459
:10105000D50703C0CE010E944A07898D9A8D0E9450
:101060005607000F81E0E81AF10861F761E0CE0150
:101070000E94D507DFBE898D9A8D0E94560721E018
:1010800030E0C901DF91CF911F910F91FF90EF9058
:10109000DF9008951F920F920FB60F9211240BB696
:1010A0000F922F933F934F935F936F937F938F9301
:1010B0009F93AF93BF93EF93FF93809137059091E8
:1010C0003805009711F00E947707FF91EF91BF91CB
:1010D000AF919F918F917F916F915F914F913F91D0
:1010E0002F910F900BBE0F900FBE0F901F90189571
:1010F0001F920F920FB60F9211240BB60F922F93DF
:101100003F934F935F936F937F938F939F93AF938F
:10111000BF93EF93FF930E944A08FF91EF91BF9115
:10112000AF919F918F917F916F915F914F913F917F
:101130002F910F900BBE0F900FBE0F901F90189520
:101140001F920F920FB60F9211240BB60F922F938E
:101150003F934F935F936F937F938F939F93AF933F
:10116000BF93EF93FF930E944A08FF91EF91BF91C5
:10117000AF919F918F917F916F915F914F913F912F
:101180002F910F900BBE0F900FBE0F901F901895D0
:101190001F93CF93DF93EC01162F61E0812F0E9404
:1011A0008A0A61E0812F0E94C60A812F90E0FC012B
:1011B000E05AFD4FE491E88BFC01EA55FD4FE491C4
:1011C000F0E0EE0FFF1FEA5FFC4F859194919A8B40
:1011D000898BDF91CF911F9108951F93CF93DF9358
:1011E000EC01162F60E0812F0E948A0A8B8D81FD11
:1011F00004C061E0812F0E94C60A1C87812F90E005
:10120000FC01E05AFD4FE491ED87FC01EA55FD4FEA
:10121000E491F0E0EE0FFF1FE451FD4F85919491B2
:101220009F878E87DF91CF911F9108951F93CF9352
:10123000DF93EC01162F1B821A8288EE93E0A0E068
:10124000B0E08C839D83AE83BF838CE192E0998371
:1012500088831C8A1B8A1E8A1D8A188E1F8A1A8EF2
:10126000198E8B8D8E7F20FB81F98B8F642FCE01A1
:101270000E94C808612FCE01DF91CF911F910C947D
:10128000ED08CF92DF92EF92FF92CF93DF93EC01C4
:101290001A8E198E188E1F8A1E8A1D8A8EE791E07B
:1012A00020E030E0FC01C590D590E590F490C416A4
:1012B000D506E606F70619F54CE0429FC001439FAC
:1012C000900D1124FC01EE57FE4F259134913C8B7B
:1012D0002B8BFC01EC57FE4F259134913E8B2D8BCF
:1012E000FC01EA57FE4F25913491388F2F8BFC017A
:1012F000E857FE4F859194919A8F898F09C02F5F8F
:101300003F4F0C962D30310509F0CCCF1C8A1B8A3B
:101310008F89988D892B09F45DC08C8526EF280F65
:10132000243048F09EEC980F943028F092EC980FFF
:10133000983008F04BC090916800243048F02EECB3
:10134000280F243028F08E53883010F484E001C038
:1013500081E0892B809368009C8586EF890F84301B
:1013600058F02EEC290F243038F022EC290F2830C9
:1013700040F0A0E0B0E007C0ABE6B0E0EBE6F0E0A4
:1013800006C0ADE6B0E0283070F5EDE6F0E0208173
:10139000843010F496500BC0923379F0933379F087
:1013A000943379F082EC890F883068F4982F81E0CB
:1013B00001C0880F9A95EAF707C088E005C084E06D
:1013C00003C082E001C081E0822B8C93898D9A8DCD
:1013D0000E945607CE01DF91CF91FF90EF90DF90F2
:1013E000CF900C945D07E0E0F0E0D1CFFC01948554
:1013F00086EF890F843048F02EEC290F243028F036
:1014000022EC290F283030F00895EBE6F0E0ABE64F
:10141000B0E004C0EDE6F0E0ADE6B0E03C91843031
:1014200018F42AEF290F0BC0923389F0933389F017
:10143000943389F082EC890F883078F4282F81E08A
:1014400090E001C0880F2A95EAF7809507C087EFE2
:1014500005C08BEF03C08DEF01C08EEF8323808327
:1014600008952CE132E0FC01318320830C94F609CD
:1014700090E0FC013197E131F10508F04AC088277E
:10148000EE58FF4F8F4F0C942E0B809180008F777A
:1014900003C0809180008F7D80938000089584B583
:1014A0008F7702C084B58F7D84BD08958091B00090
:1014B0008F7703C08091B0008F7D8093B000089536
:1014C000809190008F7707C0809190008F7D03C03E
:1014D00080919000877F8093900008958091A00074
:1014E0008F7707C08091A0008F7D03C08091A000FE
:1014F000877F8093A0000895809120018F7707C097
:10150000809120018F7D03C080912001877F80938F
:1015100020010895CF93DF9390E0FC01E05AFD4F46
:101520002491FC01EA55FD4F8491882361F190E0FC
:10153000880F991FFC01E05EFC4FC591D491FC011E
:10154000EA5FFC4FA591B491611109C09FB7F8946F
:101550008881209582238883EC912E230BC06230F2
:1015600061F49FB7F8948881322F30958323888364
:10157000EC912E2B2C939FBF06C08FB7F894E88177
:101580002E2B28838FBFDF91CF9108951F93CF9388
:10159000DF93282F30E0F901E65EFD4F8491F901D9
:1015A000E05AFD4FD491F901EA55FD4FC491CC2387
:1015B000C1F0162F81110E94380AEC2FF0E0EE0FD7
:1015C000FF1FEA5FFC4FA591B4919FB7F8941111EA
:1015D00004C08C91D095D82302C0EC91DE2BDC9313
:1015E0009FBFDF91CF911F910895F8940C944A0BFF
:1015F00097FB072E16F4009407D077FD09D00E94C0
:10160000360B07FC05D03EF4909581959F4F0895C9
:10161000709561957F4F0895A1E21A2EAA1BBB1BFE
:10162000FD010DC0AA1FBB1FEE1FFF1FA217B307AE
:10163000E407F50720F0A21BB30BE40BF50B661FC4
:10164000771F881F991F1A9469F760957095809588
:1016500090959B01AC01BD01CF010895EE0FFF1FD6
:10166000881F8BBF0790F691E02D1994AA1BBB1B16
:1016700051E107C0AA1FBB1FA617B70710F0A61B92
:10168000B70B881F991F5A95A9F780959095BC01B3
:10169000CD01089511E0CFE9D1E000E006C0802F30
:1016A000FE010E942E0B2196011DC03AD10780E059
:0816B0000807A9F7F894FFCF29
:1016B80073656E7420415400000000006E03AB0295
:1016C800170343032703630300000000E407AB028A
:0816D8002307E80609073B07A0
:00000001FF
